:020000040800F2
:1000000000000120F504000845050008450500082A
:1000100045050008450500084505000800000000EA
:10002000000000000000000000000000450500087E
:1000300045050008000000004505000865020008AD
:100040004505000845050008450500084505000868
:100050004505000845050008450500084505000858
:100060004505000845050008450500084505000848
:100070004505000845050008450500084505000838
:100080004505000845050008450500084505000828
:100090004505000845050008450500084505000818
:1000A0004505000845050008450500084505000808
:1000B00045050008450500084505000845050008F8
:1000C00045050008450500084505000845050008E8
:1000D00045050008450500084505000845050008D8
:1000E00045050008450500084505000845050008C8
:1000F00045050008450500084505000845050008B8
:10010000450500080000000000000000450500084B
:100110004505000845050008450500084505000897
:100120004505000845050008450500084505000887
:10013000450500084505000800000000000000001B
:1001400045050008450500084505000800000000B9
:10015000000000000000000000000000000000009F
:100160004505000845050008450500084505000847
:100170004505000845050008450500084505000837
:1001800045050008450500080000000000000000CB
:040190004505000819
:100194000348044B834202D0034B03B11847704712
:1001A4000400002004000020000000000548064967
:1001B400091A891001EBD171491002D0034B03B124
:1001C40018477047040000200400002000000000CD
:1001D40010B5064C237843B9FFF7DAFF044B13B18B
:1001E4000448AFF300800123237010BD04000020F5
:1001F400000000004805000808B5044B1BB1044981
:100204000448AFF30080BDE80840CFE700000000D9
:10021400080000204805000870B50D4E0D4D761BF2
:10022400B61006D00024013455F8043B9847A64282
:10023400F9D1094E094D761B00F084F9B61006D0A9
:100244000024013455F8043B9847A642F9D170BD07
:1002540070050008700500087405000870050008A2
:10026400024A136801331360704700BF2000002066
:10027400034B01225A62024B5B6A8342FBD37047F1
:100284000004004008B500F0B9F8214A136823F0CF
:10029400070343F0040313601E4B5A6822F0F00274
:1002A4005A605A6822F4F06242F080025A605A6836
:1002B40022F460525A601A6842F480321A60154B74
:1002C4001B6813F4003FFAD0124B5A6822F47012E0
:1002D40042F4E0125A605A6842F4C0325A601A6812
:1002E40042F080721A600B4B1B6813F0007FFAD047
:1002F400084A536823F0030343F002035360054B99
:100304005B6803F00C03082BF9D100F0ABF808BDCF
:1003140000200240001002400B4BDA6942F0020256
:10032400DA611A6B42F000721A63A3F503338F2269
:100334009A624FF6FF72DA625A6942F001025A6118
:1003440001221A60704700BF0010024008B5FFF791
:1003540099FF244B1B68244AA2FB03239B09013BFE
:10036400B3F1807F09D2214A5360214BF02183F8F5
:1003740023100023936007231360FFF7CDFF1D4B69
:100384005A6942F480225A611B4A116841F480413F
:100394001160002050604FF4404191605A6942F46A
:1003A40000325A614FF09042116841F400311160FB
:1003B4005060916841F4403191605A6822F00042E3
:1003C4005A605A6822F0E0625A605A6842F08062C9
:1003D4005A600720FFF74CFF074A536983F08003F4
:1003E4005361F6E700000020D34D621010E000E0F6
:1003F40000ED00E000100240000400481549D1F867
:10040400883043F47003C1F88830134B1A6842F003
:1004140001021A605868114A02405A601A6822F0B0
:10042400847222F480321A601A6822F480221A60DC
:100434005A6822F4FE025A60DA6A22F00F02DA6283
:10044400186B074A02401A6300229A604FF0006357
:100454008B60704700ED00E0001002400CC07FF894
:10046400CCFC00FF1E4B5B6803F00C03042B14D080
:10047400082B16D01BB11B4B1B4A1A6002E0194B08
:10048400194A1A60164B5B68C3F30313174AD15C0D
:10049400144A1368CB4013607047124B124A1A6017
:1004A400F0E70F4A5368516801F4C031C3F3834342
:1004B4000233D26A02F00F020132B1F5803F07D055
:1004C4000949B1FBF2F203FB02F3064A1360D9E7D0
:1004D4000549B1FBF2F203FB02F3024A1360D1E7D0
:1004E400001002400000002000127A00600500089D
:1004F400DFF834D0FFF782FF0C480D490D4A002382
:1005040002E0D458C4500433C4188C42F9D30A4AC4
:100514000A4C002301E013600432A242FBD3FFF72C
:100524007BFEFFF713FFFEE7000001200000002020
:1005340004000020780500080400002024000020A6
:10054400FEE70000F8B500BFF8BC08BC9E46704743
:0C055400F8B500BFF8BC08BC9E4670471C
:100560000000000000000000010203040607080963
:04057000FD01000881
:04057400D5010008A5
:0405780000127A00F3
:04000005080004F5F6
:00000001FF
