:020000040800F2
:10000000000001203D0300088D0300088D03000857
:100010008D0300088D0300088D0300080000000018
:100020000000000000000000000000008D03000838
:100030008D030008000000008D0300088D030008F8
:100040008D0300088D0300088D0300088D03000850
:100050008D0300088D0300088D0300088D03000840
:100060008D0300088D0300088D0300088D03000830
:100070008D0300088D0300088D0300088D03000820
:100080008D0300088D0300088D0300088D03000810
:100090008D0300088D0300088D0300088D03000800
:1000A0008D0300088D0300088D0300088D030008F0
:1000B0008D0300088D0300088D0300088D030008E0
:1000C0008D0300088D0300088D0300088D030008D0
:1000D0008D0300088D0300088D0300088D030008C0
:1000E0008D0300088D0300088D0300088D030008B0
:1000F0008D0300088D0300088D0300088D030008A0
:100100008D03000800000000000000008D030008BF
:100110008D0300088D0300088D0300088D0300087F
:100120008D0300088D0300088D0300088D0300086F
:100130008D0300088D03000800000000000000008F
:100140008D0300088D0300088D03000800000000E7
:10015000000000000000000000000000000000009F
:100160008D0300088D0300088D0300088D0300082F
:100170008D0300088D0300088D0300088D0300081F
:100180008D0300088D03000800000000000000003F
:040190008D030008D3
:100194000348044B834202D0034B03B11847704712
:1001A400000000200000002000000000054806496F
:1001B400091A891001EBD171491002D0034B03B124
:1001C40018477047000000200000002000000000D5
:1001D40010B5064C237843B9FFF7DAFF044B13B18B
:1001E4000448AFF300800123237010BD00000020F9
:1001F400000000009003000808B5044B1BB104493B
:100204000448AFF30080BDE80840CFE700000000D9
:10021400040000209003000870B50D4E0D4D761BB0
:10022400B61006D00024013455F8043B9847A64282
:10023400F9D1094E094D761B00F0A8F8B61006D086
:100244000024013455F8043B9847A642F9D170BD07
:10025400A8030008A8030008AC030008A8030008CA
:1002640080B483B000AF7860094B00221A6004E0C8
:10027400074B1B680133064A1360054B1B687A68F9
:100284009A42F5D800BF0C37BD465DF8047B704731
:100294001C00002008B50B4A536943F480235361C2
:1002A400094B1A6842F480421A6000225A609A602C
:1002B4000648FFF7D5FF044A536983F0800353616E
:1002C400F6E700BF0010024000040048A0860100C9
:1002D4001549D1F8883043F47003C1F88830134BC2
:1002E4001A6842F001021A605868114A02405A60C2
:1002F4001A6822F0847222F480321A601A6822F496
:1003040080221A605A6822F4FE025A60DA6A22F0E5
:100314000F02DA62186B074A02401A6300229A60DD
:100324004FF000638B60704700ED00E00010024066
:100334000CC07FF8CCFC00FFDFF834D0FFF7C8FF17
:100344000C480D490D4A002302E0D458C45004332C
:10035400C4188C42F9D30A4A0A4C002301E0136002
:100364000432A242FBD3FFF757FFFFF793FFFEE7E8
:10037400000001200000002000000020B00300085D
:100384000000002020000020FEE70000F8B500BFB8
:10039400F8BC08BC9E467047F8B500BFF8BC08BC62
:0403A4009E467047BA
:0403A800FD0100084B
:0403AC00D50100086F
:040000050800033DAF
:00000001FF
